{
  "contractName": "SampleRefund",
  "abi": [
    {
      "payable": true,
      "stateMutability": "payable",
      "type": "fallback"
    },
    {
      "constant": false,
      "inputs": [
        {
          "name": "_amount",
          "type": "uint256"
        }
      ],
      "name": "Refund",
      "outputs": [
        {
          "name": "",
          "type": "bool"
        }
      ],
      "payable": false,
      "stateMutability": "nonpayable",
      "type": "function"
    }
  ],
  "bytecode": "0x6060604052341561000f57600080fd5b60ef8061001d6000396000f300606060405260043610603f576000357c0100000000000000000000000000000000000000000000000000000000900463ffffffff1680632e1897b0146041575b005b3415604b57600080fd5b605f60048080359060200190919050506079565b604051808215151515815260200191505060405180910390f35b60003373ffffffffffffffffffffffffffffffffffffffff166108fc839081150290604051600060405180830381858888f19350505050151560ba57600080fd5b600190509190505600a165627a7a72305820d89e80ab1cecbc0d6015ce063d84c5565ef074b5a9490d42d474b7ae6a634c3d0029",
  "source": "pragma solidity ^0.4.18;\r\n\r\ncontract SampleRefund {\r\n\r\n  function Refund(uint256 _amount) public returns (bool) {\r\n    // по всей видимости,\r\n    // чтобы был возврат средств, эфир должны оставиться на смартконракте\r\n    msg.sender.transfer(_amount);\r\n    return true;\r\n  }\r\n\r\n  function() payable {\r\n    \r\n  }\r\n\r\n}\r\n",
  "sourcePath": "/var/www/ico3.test/public_html/contracts/SampleRefund.sol",
  "compiler": {
    "name": "solc",
    "version": "0.4.19+commit.c4cbbb05.Emscripten.clang"
  },
  "schemaVersion": "2.0.0",
  "updatedAt": "2018-04-19T05:45:54.182Z"
}