{
  "contractName": "TonerCoinCrowdsale",
  "abi": [
    {
      "constant": true,
      "inputs": [],
      "name": "icoActive",
      "outputs": [
        {
          "name": "",
          "type": "bool"
        }
      ],
      "payable": false,
      "stateMutability": "view",
      "type": "function"
    },
    {
      "constant": true,
      "inputs": [],
      "name": "rate",
      "outputs": [
        {
          "name": "",
          "type": "uint256"
        }
      ],
      "payable": false,
      "stateMutability": "view",
      "type": "function"
    },
    {
      "constant": true,
      "inputs": [],
      "name": "decimals",
      "outputs": [
        {
          "name": "",
          "type": "uint8"
        }
      ],
      "payable": false,
      "stateMutability": "view",
      "type": "function"
    },
    {
      "constant": true,
      "inputs": [],
      "name": "icoRefundTime",
      "outputs": [
        {
          "name": "",
          "type": "uint256"
        }
      ],
      "payable": false,
      "stateMutability": "view",
      "type": "function"
    },
    {
      "constant": true,
      "inputs": [],
      "name": "weiRaised",
      "outputs": [
        {
          "name": "",
          "type": "uint256"
        }
      ],
      "payable": false,
      "stateMutability": "view",
      "type": "function"
    },
    {
      "constant": true,
      "inputs": [],
      "name": "wallet",
      "outputs": [
        {
          "name": "",
          "type": "address"
        }
      ],
      "payable": false,
      "stateMutability": "view",
      "type": "function"
    },
    {
      "constant": true,
      "inputs": [],
      "name": "hardcapUSD",
      "outputs": [
        {
          "name": "",
          "type": "uint256"
        }
      ],
      "payable": false,
      "stateMutability": "view",
      "type": "function"
    },
    {
      "constant": true,
      "inputs": [],
      "name": "TokenMax",
      "outputs": [
        {
          "name": "",
          "type": "uint256"
        }
      ],
      "payable": false,
      "stateMutability": "view",
      "type": "function"
    },
    {
      "constant": true,
      "inputs": [],
      "name": "preIcoEndTime",
      "outputs": [
        {
          "name": "",
          "type": "uint256"
        }
      ],
      "payable": false,
      "stateMutability": "view",
      "type": "function"
    },
    {
      "constant": true,
      "inputs": [],
      "name": "currentTokenPrice",
      "outputs": [
        {
          "name": "",
          "type": "uint8"
        }
      ],
      "payable": false,
      "stateMutability": "view",
      "type": "function"
    },
    {
      "constant": true,
      "inputs": [],
      "name": "icoEndTime",
      "outputs": [
        {
          "name": "",
          "type": "uint256"
        }
      ],
      "payable": false,
      "stateMutability": "view",
      "type": "function"
    },
    {
      "constant": true,
      "inputs": [],
      "name": "canRefund",
      "outputs": [
        {
          "name": "",
          "type": "bool"
        }
      ],
      "payable": false,
      "stateMutability": "view",
      "type": "function"
    },
    {
      "constant": true,
      "inputs": [],
      "name": "softcapUSD",
      "outputs": [
        {
          "name": "",
          "type": "uint256"
        }
      ],
      "payable": false,
      "stateMutability": "view",
      "type": "function"
    },
    {
      "constant": true,
      "inputs": [],
      "name": "owner",
      "outputs": [
        {
          "name": "",
          "type": "address"
        }
      ],
      "payable": false,
      "stateMutability": "view",
      "type": "function"
    },
    {
      "constant": true,
      "inputs": [],
      "name": "preIcoStartTime",
      "outputs": [
        {
          "name": "",
          "type": "uint256"
        }
      ],
      "payable": false,
      "stateMutability": "view",
      "type": "function"
    },
    {
      "constant": true,
      "inputs": [],
      "name": "bountyTokenAmount",
      "outputs": [
        {
          "name": "",
          "type": "uint256"
        }
      ],
      "payable": false,
      "stateMutability": "view",
      "type": "function"
    },
    {
      "constant": true,
      "inputs": [],
      "name": "TokenAmount",
      "outputs": [
        {
          "name": "",
          "type": "uint256"
        }
      ],
      "payable": false,
      "stateMutability": "view",
      "type": "function"
    },
    {
      "constant": true,
      "inputs": [],
      "name": "icoStartTime",
      "outputs": [
        {
          "name": "",
          "type": "uint256"
        }
      ],
      "payable": false,
      "stateMutability": "view",
      "type": "function"
    },
    {
      "constant": true,
      "inputs": [],
      "name": "rateUSDcETH",
      "outputs": [
        {
          "name": "",
          "type": "uint256"
        }
      ],
      "payable": false,
      "stateMutability": "view",
      "type": "function"
    },
    {
      "constant": true,
      "inputs": [],
      "name": "preIcoFailTime",
      "outputs": [
        {
          "name": "",
          "type": "uint256"
        }
      ],
      "payable": false,
      "stateMutability": "view",
      "type": "function"
    },
    {
      "constant": true,
      "inputs": [
        {
          "name": "",
          "type": "address"
        }
      ],
      "name": "deposited",
      "outputs": [
        {
          "name": "",
          "type": "uint256"
        }
      ],
      "payable": false,
      "stateMutability": "view",
      "type": "function"
    },
    {
      "constant": true,
      "inputs": [],
      "name": "bountyTokenMax",
      "outputs": [
        {
          "name": "",
          "type": "uint256"
        }
      ],
      "payable": false,
      "stateMutability": "view",
      "type": "function"
    },
    {
      "constant": true,
      "inputs": [],
      "name": "usdRaised",
      "outputs": [
        {
          "name": "",
          "type": "uint256"
        }
      ],
      "payable": false,
      "stateMutability": "view",
      "type": "function"
    },
    {
      "constant": false,
      "inputs": [
        {
          "name": "newOwner",
          "type": "address"
        }
      ],
      "name": "transferOwnership",
      "outputs": [],
      "payable": false,
      "stateMutability": "nonpayable",
      "type": "function"
    },
    {
      "constant": true,
      "inputs": [
        {
          "name": "",
          "type": "address"
        }
      ],
      "name": "bountyBalances",
      "outputs": [
        {
          "name": "",
          "type": "uint256"
        }
      ],
      "payable": false,
      "stateMutability": "view",
      "type": "function"
    },
    {
      "constant": true,
      "inputs": [],
      "name": "token",
      "outputs": [
        {
          "name": "",
          "type": "address"
        }
      ],
      "payable": false,
      "stateMutability": "view",
      "type": "function"
    },
    {
      "inputs": [
        {
          "name": "_rate",
          "type": "uint256"
        },
        {
          "name": "_wallet",
          "type": "address"
        },
        {
          "name": "_token",
          "type": "address"
        }
      ],
      "payable": false,
      "stateMutability": "nonpayable",
      "type": "constructor"
    },
    {
      "payable": true,
      "stateMutability": "payable",
      "type": "fallback"
    },
    {
      "anonymous": false,
      "inputs": [
        {
          "indexed": false,
          "name": "rate",
          "type": "uint256"
        }
      ],
      "name": "RateUpdate",
      "type": "event"
    },
    {
      "anonymous": false,
      "inputs": [
        {
          "indexed": true,
          "name": "beneficiary",
          "type": "address"
        },
        {
          "indexed": false,
          "name": "weiAmount",
          "type": "uint256"
        }
      ],
      "name": "Refunded",
      "type": "event"
    },
    {
      "anonymous": false,
      "inputs": [
        {
          "indexed": true,
          "name": "purchaser",
          "type": "address"
        },
        {
          "indexed": true,
          "name": "beneficiary",
          "type": "address"
        },
        {
          "indexed": false,
          "name": "value",
          "type": "uint256"
        },
        {
          "indexed": false,
          "name": "amount",
          "type": "uint256"
        }
      ],
      "name": "TokenPurchase",
      "type": "event"
    },
    {
      "anonymous": false,
      "inputs": [
        {
          "indexed": true,
          "name": "previousOwner",
          "type": "address"
        },
        {
          "indexed": true,
          "name": "newOwner",
          "type": "address"
        }
      ],
      "name": "OwnershipTransferred",
      "type": "event"
    },
    {
      "constant": false,
      "inputs": [
        {
          "name": "_beneficiary",
          "type": "address"
        }
      ],
      "name": "buyTokens",
      "outputs": [],
      "payable": true,
      "stateMutability": "payable",
      "type": "function"
    },
    {
      "constant": false,
      "inputs": [
        {
          "name": "_wallet",
          "type": "address"
        }
      ],
      "name": "forwardFunds",
      "outputs": [],
      "payable": false,
      "stateMutability": "nonpayable",
      "type": "function"
    },
    {
      "constant": false,
      "inputs": [
        {
          "name": "_rateUSDcETH",
          "type": "uint256"
        }
      ],
      "name": "setRate",
      "outputs": [],
      "payable": false,
      "stateMutability": "nonpayable",
      "type": "function"
    },
    {
      "constant": true,
      "inputs": [
        {
          "name": "_weiDeposit",
          "type": "uint256"
        }
      ],
      "name": "calculateUSDcValue",
      "outputs": [
        {
          "name": "",
          "type": "uint256"
        }
      ],
      "payable": false,
      "stateMutability": "view",
      "type": "function"
    },
    {
      "constant": true,
      "inputs": [
        {
          "name": "_usdcDeposit",
          "type": "uint256"
        }
      ],
      "name": "calculateWeiFromUSDc",
      "outputs": [
        {
          "name": "",
          "type": "uint256"
        }
      ],
      "payable": false,
      "stateMutability": "view",
      "type": "function"
    },
    {
      "constant": true,
      "inputs": [
        {
          "name": "_weiDeposit",
          "type": "uint256"
        }
      ],
      "name": "calculateTokenAmount",
      "outputs": [
        {
          "name": "",
          "type": "uint256"
        }
      ],
      "payable": false,
      "stateMutability": "view",
      "type": "function"
    },
    {
      "constant": false,
      "inputs": [
        {
          "name": "_beneficiary",
          "type": "address"
        },
        {
          "name": "_tokenAmount",
          "type": "uint256"
        }
      ],
      "name": "sendBountyTokens",
      "outputs": [
        {
          "name": "",
          "type": "uint256"
        }
      ],
      "payable": false,
      "stateMutability": "nonpayable",
      "type": "function"
    },
    {
      "constant": false,
      "inputs": [],
      "name": "refund",
      "outputs": [
        {
          "name": "",
          "type": "bool"
        }
      ],
      "payable": false,
      "stateMutability": "nonpayable",
      "type": "function"
    },
    {
      "constant": false,
      "inputs": [],
      "name": "destroy",
      "outputs": [],
      "payable": false,
      "stateMutability": "nonpayable",
      "type": "function"
    }
  ],
  "bytecode": "0x6060604052601260ff16600a0a62030d4002600e55341561001f57600080fd5b6040516060806118fe83398101604052808051906020019091908051906020019091908051906020019091905050828282336000806101000a81548173ffffffffffffffffffffffffffffffffffffffff021916908373ffffffffffffffffffffffffffffffffffffffff16021790555060008311151561009f57600080fd5b600073ffffffffffffffffffffffffffffffffffffffff168273ffffffffffffffffffffffffffffffffffffffff16141515156100db57600080fd5b600073ffffffffffffffffffffffffffffffffffffffff168173ffffffffffffffffffffffffffffffffffffffff161415151561011757600080fd5b8260038190555081600260006101000a81548173ffffffffffffffffffffffffffffffffffffffff021916908373ffffffffffffffffffffffffffffffffffffffff16021790555080600160006101000a81548173ffffffffffffffffffffffffffffffffffffffff021916908373ffffffffffffffffffffffffffffffffffffffff160217905550505050336000806101000a81548173ffffffffffffffffffffffffffffffffffffffff021916908373ffffffffffffffffffffffffffffffffffffffff1602179055508260068190555080600560006101000a81548173ffffffffffffffffffffffffffffffffffffffff021916908373ffffffffffffffffffffffffffffffffffffffff1602179055504260118190555060f0420160128190555061016842016013819055506101e0420160148190555061025842016015819055506102d042016016819055506001600a60016101000a81548160ff0219169083151502179055506000600a60026101000a81548160ff02191690831515021790555061138860078190555061271060088190555050505061163c806102c26000396000f3006060604052600436106101b7576000357c0100000000000000000000000000000000000000000000000000000000900463ffffffff1680632aa073c5146101c25780632c4e722e146101ef578063313ce56714610218578063324e1f481461024757806334fcf437146102705780634042b66f14610293578063521eb273146102bc578063535556af1461031157806357e233e214610348578063590e1ae314610371578063688bf0351461039e5780636f971e73146103d5578063716344f0146103fe57806371b3659e146104275780637e1055b6146104565780637f83a4a61461047f57806383197ef0146104ac578063835ac5ce146104c15780638da5cb5b146104ea578063910f5b811461053f57806391104f8214610568578063a24bcf4614610591578063a2dfb668146105c8578063a7c3d71b146105f1578063c49589bb1461061a578063c63cabb814610643578063cb13cddb1461066c578063d1aea543146106b9578063e9a60d40146106f2578063eadd94ec1461071b578063ec8ac4d814610744578063f2fde38b14610772578063f3d9bc65146107ab578063f8bd8c8714610801578063fc0c546a1461084e575b6101c0336108a3565b005b34156101cd57600080fd5b6101d5610a3d565b604051808215151515815260200191505060405180910390f35b34156101fa57600080fd5b610202610a50565b6040518082815260200191505060405180910390f35b341561022357600080fd5b61022b610a56565b604051808260ff1660ff16815260200191505060405180910390f35b341561025257600080fd5b61025a610a5b565b6040518082815260200191505060405180910390f35b341561027b57600080fd5b6102916004808035906020019091905050610a61565b005b341561029e57600080fd5b6102a6610aff565b6040518082815260200191505060405180910390f35b34156102c757600080fd5b6102cf610b05565b604051808273ffffffffffffffffffffffffffffffffffffffff1673ffffffffffffffffffffffffffffffffffffffff16815260200191505060405180910390f35b341561031c57600080fd5b6103326004808035906020019091905050610b2b565b6040518082815260200191505060405180910390f35b341561035357600080fd5b61035b610b5e565b6040518082815260200191505060405180910390f35b341561037c57600080fd5b610384610b64565b604051808215151515815260200191505060405180910390f35b34156103a957600080fd5b6103bf6004808035906020019091905050610cb4565b6040518082815260200191505060405180910390f35b34156103e057600080fd5b6103e8610cf0565b6040518082815260200191505060405180910390f35b341561040957600080fd5b610411610cf6565b6040518082815260200191505060405180910390f35b341561043257600080fd5b61043a610cfc565b604051808260ff1660ff16815260200191505060405180910390f35b341561046157600080fd5b610469610d0f565b6040518082815260200191505060405180910390f35b341561048a57600080fd5b610492610d15565b604051808215151515815260200191505060405180910390f35b34156104b757600080fd5b6104bf610d28565b005b34156104cc57600080fd5b6104d4610dbd565b6040518082815260200191505060405180910390f35b34156104f557600080fd5b6104fd610dc3565b604051808273ffffffffffffffffffffffffffffffffffffffff1673ffffffffffffffffffffffffffffffffffffffff16815260200191505060405180910390f35b341561054a57600080fd5b610552610de8565b6040518082815260200191505060405180910390f35b341561057357600080fd5b61057b610dee565b6040518082815260200191505060405180910390f35b341561059c57600080fd5b6105b26004808035906020019091905050610df4565b6040518082815260200191505060405180910390f35b34156105d357600080fd5b6105db610e3b565b6040518082815260200191505060405180910390f35b34156105fc57600080fd5b610604610e41565b6040518082815260200191505060405180910390f35b341561062557600080fd5b61062d610e47565b6040518082815260200191505060405180910390f35b341561064e57600080fd5b610656610e4d565b6040518082815260200191505060405180910390f35b341561067757600080fd5b6106a3600480803573ffffffffffffffffffffffffffffffffffffffff16906020019091905050610e53565b6040518082815260200191505060405180910390f35b34156106c457600080fd5b6106f0600480803573ffffffffffffffffffffffffffffffffffffffff16906020019091905050610e6b565b005b34156106fd57600080fd5b610705610f38565b6040518082815260200191505060405180910390f35b341561072657600080fd5b61072e610f3e565b6040518082815260200191505060405180910390f35b610770600480803573ffffffffffffffffffffffffffffffffffffffff169060200190919050506108a3565b005b341561077d57600080fd5b6107a9600480803573ffffffffffffffffffffffffffffffffffffffff16906020019091905050610f44565b005b34156107b657600080fd5b6107eb600480803573ffffffffffffffffffffffffffffffffffffffff16906020019091908035906020019091905050611099565b6040518082815260200191505060405180910390f35b341561080c57600080fd5b610838600480803573ffffffffffffffffffffffffffffffffffffffff1690602001909190505061123c565b6040518082815260200191505060405180910390f35b341561085957600080fd5b610861611254565b604051808273ffffffffffffffffffffffffffffffffffffffff1673ffffffffffffffffffffffffffffffffffffffff16815260200191505060405180910390f35b6000803491506108b3838361127a565b6108bc82610df4565b90506108d3826004546114b190919063ffffffff16565b6004819055506108ee81600f546114b190919063ffffffff16565b600f81905550601054600f541115151561090757600080fd5b610912600454610cb4565b60098190555061092283826114cf565b8273ffffffffffffffffffffffffffffffffffffffff163373ffffffffffffffffffffffffffffffffffffffff167f623b3804fa71d67900d064613da8f94b9617215ee90799290593e1745087ad188484604051808381526020018281526020019250505060405180910390a361099983836114dd565b6109eb82600c60008673ffffffffffffffffffffffffffffffffffffffff1673ffffffffffffffffffffffffffffffffffffffff168152602001908152602001600020546114b190919063ffffffff16565b600c60008573ffffffffffffffffffffffffffffffffffffffff1673ffffffffffffffffffffffffffffffffffffffff16815260200190815260200160002081905550610a3883836114e1565b505050565b600a60019054906101000a900460ff1681565b60035481565b601281565b60165481565b6000809054906101000a900473ffffffffffffffffffffffffffffffffffffffff1673ffffffffffffffffffffffffffffffffffffffff163373ffffffffffffffffffffffffffffffffffffffff16141515610abc57600080fd5b806006819055507f9b831dcbec52dfe52b187da18aae08651dfb726e9baf49d5d9eae6fa264db3a16006546040518082815260200191505060405180910390a150565b60045481565b600a60039054906101000a900473ffffffffffffffffffffffffffffffffffffffff1681565b6000806000670de0b6b3a7640000600654029150610b5284836114e590919063ffffffff16565b90508092505050919050565b60085481565b6000806000600a60029054906101000a900460ff161515610b8457600080fd5b339150600c60008373ffffffffffffffffffffffffffffffffffffffff1673ffffffffffffffffffffffffffffffffffffffff168152602001908152602001600020549050600081111515610bd857600080fd5b6000600c60008473ffffffffffffffffffffffffffffffffffffffff1673ffffffffffffffffffffffffffffffffffffffff168152602001908152602001600020819055508173ffffffffffffffffffffffffffffffffffffffff166108fc829081150290604051600060405180830381858888f193505050501515610c5d57600080fd5b8173ffffffffffffffffffffffffffffffffffffffff167fd7dee2702d63ad89917b6a4da9981c90c4d24f8c2bdfd64c604ecae57d8d0651826040518082815260200191505060405180910390a260019250505090565b6000806000600654670de0b6b3a7640000811515610cce57fe5b049150610ce482856114e590919063ffffffff16565b90508092505050919050565b60105481565b60125481565b600a60009054906101000a900460ff1681565b60155481565b600a60029054906101000a900460ff1681565b6000809054906101000a900473ffffffffffffffffffffffffffffffffffffffff1673ffffffffffffffffffffffffffffffffffffffff163373ffffffffffffffffffffffffffffffffffffffff16141515610d8357600080fd5b6000809054906101000a900473ffffffffffffffffffffffffffffffffffffffff1673ffffffffffffffffffffffffffffffffffffffff16ff5b60075481565b6000809054906101000a900473ffffffffffffffffffffffffffffffffffffffff1681565b60115481565b600d5481565b600080601260ff16600a0a610e0884610cb4565b029050610e30600a60009054906101000a900460ff1660ff16826114e590919063ffffffff16565b905080915050919050565b600f5481565b60145481565b60065481565b60135481565b600c6020528060005260406000206000915090505481565b6000809054906101000a900473ffffffffffffffffffffffffffffffffffffffff1673ffffffffffffffffffffffffffffffffffffffff163373ffffffffffffffffffffffffffffffffffffffff16141515610ec657600080fd5b600a60029054906101000a900460ff16151515610ee257600080fd5b6015544210151515610ef357600080fd5b8073ffffffffffffffffffffffffffffffffffffffff166108fc6004549081150290604051600060405180830381858888f193505050501515610f3557600080fd5b50565b600e5481565b60095481565b6000809054906101000a900473ffffffffffffffffffffffffffffffffffffffff1673ffffffffffffffffffffffffffffffffffffffff163373ffffffffffffffffffffffffffffffffffffffff16141515610f9f57600080fd5b600073ffffffffffffffffffffffffffffffffffffffff168173ffffffffffffffffffffffffffffffffffffffff1614151515610fdb57600080fd5b8073ffffffffffffffffffffffffffffffffffffffff166000809054906101000a900473ffffffffffffffffffffffffffffffffffffffff1673ffffffffffffffffffffffffffffffffffffffff167f8be0079c531659141344cd1fd0a4f28419497f9722a3daafe3b4186f6b6457e060405160405180910390a3806000806101000a81548173ffffffffffffffffffffffffffffffffffffffff021916908373ffffffffffffffffffffffffffffffffffffffff16021790555050565b60008060009054906101000a900473ffffffffffffffffffffffffffffffffffffffff1673ffffffffffffffffffffffffffffffffffffffff163373ffffffffffffffffffffffffffffffffffffffff161415156110f657600080fd5b6011544210151561110657600080fd5b61111b82600d546114b190919063ffffffff16565b600d81905550600e54600d541115151561113457600080fd5b600560009054906101000a900473ffffffffffffffffffffffffffffffffffffffff1673ffffffffffffffffffffffffffffffffffffffff166340c10f1984846000604051602001526040518363ffffffff167c0100000000000000000000000000000000000000000000000000000000028152600401808373ffffffffffffffffffffffffffffffffffffffff1673ffffffffffffffffffffffffffffffffffffffff16815260200182815260200192505050602060405180830381600087803b151561120157600080fd5b6102c65a03f1151561121257600080fd5b5050506040518051905050611234600d54600e5461150090919063ffffffff16565b905092915050565b600b6020528060005260406000206000915090505481565b600560009054906101000a900473ffffffffffffffffffffffffffffffffffffffff1681565b600073ffffffffffffffffffffffffffffffffffffffff168273ffffffffffffffffffffffffffffffffffffffff16141515156112b657600080fd5b600081141515156112c657600080fd5b60115442101580156112d9575060125442105b1561130d57600a8060006101000a81548160ff021916908360ff160217905550601260ff16600a0a621b7740026010819055505b60125442101580156113225750600754600954105b15611389576000600a60016101000a81548160ff02191690831515021790555060135442101561136c576001600a60026101000a81548160ff021916908315150217905550611388565b6000600a60026101000a81548160ff0219169083151502179055505b5b601154421015801561139f575060075460095410155b156113c0576000600a60016101000a81548160ff0219169083151502179055505b60145442101580156113d6575060075460095410155b15611426576001600a60016101000a81548160ff0219169083151502179055506028600a60006101000a81548160ff021916908360ff160217905550601260ff16600a0a627a1200026010819055505b601554421015801561143b5750600854600954105b1561145c576000600a60016101000a81548160ff0219169083151502179055505b60145442118015611471575060085460095410155b15611492576000600a60016101000a81548160ff0219169083151502179055505b600a60019054906101000a900460ff1615156114ad57600080fd5b5050565b60008082840190508381101515156114c557fe5b8091505092915050565b6114d98282611519565b5050565b5050565b5050565b60008082848115156114f357fe5b0490508091505092915050565b600082821115151561150e57fe5b818303905092915050565b600160009054906101000a900473ffffffffffffffffffffffffffffffffffffffff1673ffffffffffffffffffffffffffffffffffffffff166340c10f1983836000604051602001526040518363ffffffff167c0100000000000000000000000000000000000000000000000000000000028152600401808373ffffffffffffffffffffffffffffffffffffffff1673ffffffffffffffffffffffffffffffffffffffff16815260200182815260200192505050602060405180830381600087803b15156115e657600080fd5b6102c65a03f115156115f757600080fd5b50505060405180519050151561160c57600080fd5b50505600a165627a7a723058206e1b955cf71de5e3962d4705eb782180597685e7da524423e9d9d129179964f90029",
  "source": "pragma solidity ^0.4.18;\r\n\r\nimport './TonerCoin.sol';\r\nimport 'zeppelin-solidity/contracts/crowdsale/emission/MintedCrowdsale.sol';\r\n\r\ncontract TonerCoinCrowdsale is Ownable, MintedCrowdsale {\r\n\r\n  using SafeMath for uint256;\r\n\r\n  TonerCoin public token;\r\n  uint256 public rateUSDcETH;\r\n  uint256 public softcapUSD;\r\n  uint256 public hardcapUSD;\r\n  uint256 public usdRaised;\r\n  uint8 public constant decimals = 18;\r\n  uint8 public currentTokenPrice;\r\n  bool public icoActive;\r\n  bool public canRefund;\r\n  address public wallet;\r\n\r\n  // держатели bounty токенов\r\n  mapping(address => uint256) public bountyBalances;\r\n\r\n  // адреса перечислевшие эфир\r\n  mapping (address => uint256) public deposited;\r\n\r\n  // количество выпущенных токенов для разных этапов\r\n  uint256 public bountyTokenAmount;\r\n  uint256 public bountyTokenMax = 200000 * (10 ** uint256(decimals));\r\n  uint256 public TokenAmount;\r\n  uint256 public TokenMax;\r\n\r\n  // время начала преICO и ICO\r\n  uint256 public preIcoStartTime;\r\n  uint256 public preIcoEndTime;\r\n  uint256 public preIcoFailTime;\r\n  uint256 public icoStartTime;\r\n  uint256 public icoEndTime;\r\n  uint256 public icoRefundTime;\r\n\r\n  event RateUpdate(uint256 rate);\r\n  event Refunded(address indexed beneficiary, uint256 weiAmount);\r\n\r\n  function TonerCoinCrowdsale(\r\n    uint256 _rate,\r\n    address _wallet,\r\n    TonerCoin _token\r\n    )\r\n    public\r\n    Crowdsale(_rate, _wallet, _token) {\r\n      owner = msg.sender;\r\n      rateUSDcETH = _rate;\r\n      token = _token;\r\n      // testing time\r\n      preIcoStartTime = now;\r\n      preIcoEndTime = now + 240;\r\n      preIcoFailTime = now + 360;\r\n      icoStartTime = now + 480;\r\n      icoEndTime =  now + 600;\r\n      icoRefundTime =  now + 720;\r\n      // setup time\r\n      /*\r\n      preIcoStartTime = now;\r\n      preIcoEndTime = 1525824000; // 9 may 2018\r\n      icoStartTime = 1526774400; // 20 may 2018\r\n      icoEndTime =  1563580800; // 20 july 2018\r\n      */\r\n      // ico active\r\n      icoActive = true;\r\n      canRefund = false;\r\n\r\n      //softcapUSD  = 20000000;\r\n      // тестовый softcap\r\n      softcapUSD = 5000;\r\n\r\n      //hardcapUSD = 300000000;\r\n      // тестовый hardcap\r\n      hardcapUSD = 10000;\r\n  }\r\n  /*==================\r\n  ====MAIN=FUNCTIONS==\r\n  ==================*/\r\n  function buyTokens(address _beneficiary) public payable {\r\n\r\n    uint256 weiAmount = msg.value;\r\n\r\n    _preValidatePurchase(_beneficiary, weiAmount);\r\n\r\n    // calculate token amount to be created\r\n    uint256 tokens = calculateTokenAmount(weiAmount);\r\n\r\n    // update state\r\n    weiRaised = weiRaised.add(weiAmount);\r\n\r\n    TokenAmount = TokenAmount.add(tokens);\r\n    require(TokenAmount <= TokenMax);\r\n\r\n    usdRaised = calculateUSDcValue(weiRaised);\r\n\r\n    _processPurchase(_beneficiary, tokens);\r\n    TokenPurchase(msg.sender, _beneficiary, weiAmount, tokens);\r\n\r\n    _updatePurchasingState(_beneficiary, weiAmount);\r\n\r\n    deposited[_beneficiary] = deposited[_beneficiary].add(weiAmount);\r\n\r\n    //_forwardFunds(); функция закоментирована, ибо мы возвращаем деньги не на кошелек,\r\n    // создавший смарт-контракт, а на сам сам контракт, чтобы инвесторы в случае чего\r\n    // могли вернуть свой эфир\r\n\r\n    _postValidatePurchase(_beneficiary, weiAmount);\r\n\r\n  }\r\n\r\n  function _preValidatePurchase(address _beneficiary, uint256 _weiAmount) internal {\r\n    require(_beneficiary != address(0));\r\n    require(_weiAmount != 0);\r\n\r\n    // баунти закончилось, устанавливаем\r\n    // лимит токенов\r\n    // и цену за токен - 40 центов\r\n    if(block.timestamp >= preIcoStartTime && block.timestamp < preIcoEndTime) {\r\n      currentTokenPrice = 10;\r\n      TokenMax = 1800000 * (10 ** uint256(decimals));\r\n    }\r\n    // если preICO закончилось и мы не набрали softcap, то завершаем ICO\r\n    if(block.timestamp >= preIcoEndTime && usdRaised < softcapUSD) {\r\n      icoActive = false;\r\n      // в течении двух месяцев после неудачного ICO инвесторы не смогут вернуть свой эфир\r\n      if(block.timestamp < preIcoFailTime) {\r\n        canRefund = true;\r\n      }\r\n      // если время прошло, то инвестор уже не может вернуть эфир\r\n      else {\r\n        canRefund = false;\r\n      }\r\n    }\r\n    // если мы набрали softcap\r\n    // то приостанавливаем продажу токенов\r\n    // и ждем до начала ICO\r\n    if(block.timestamp >= preIcoStartTime && usdRaised >= softcapUSD) {\r\n      icoActive = false;\r\n    }\r\n    // если преICO завершилось успешно, то устанавливаем\r\n    // лимит токенов\r\n    // и цену за токен - 40 центов\r\n    if(block.timestamp >= icoStartTime && usdRaised >= softcapUSD) {\r\n      icoActive = true;\r\n      currentTokenPrice = 40;\r\n      TokenMax = 8000000 * (10 ** uint256(decimals));\r\n    }\r\n    // если не набираем hardcap и время ICO прошло, то\r\n    // завершаем ICO\r\n    if(block.timestamp >= icoEndTime && usdRaised < hardcapUSD) {\r\n      icoActive = false;\r\n    }\r\n    // если набираем hardcap завершаем ICO\r\n    if(block.timestamp > icoStartTime && usdRaised >= hardcapUSD) {\r\n      icoActive = false;\r\n    }\r\n\r\n    require(icoActive);\r\n\r\n  }\r\n\r\n  // передаем эфир со смартконтракте на кошелек\r\n  // функцию возможно вызвать только в том случае\r\n  // если не идет период возрата эфира инвесторам\r\n  // и если наше ico прошло\r\n  function forwardFunds(address _wallet) onlyOwner public {\r\n    require(!canRefund);\r\n    require(block.timestamp >= icoEndTime);\r\n    _wallet.transfer(weiRaised);\r\n  }\r\n\r\n  // set rate\r\n  function setRate(uint256 _rateUSDcETH) onlyOwner public {\r\n      rateUSDcETH = _rateUSDcETH;\r\n      RateUpdate(rateUSDcETH);\r\n  }\r\n\r\n  // calculate deposit value in USD Cents\r\n  function calculateUSDcValue(uint256 _weiDeposit) public view returns (uint256) {\r\n\r\n      // wei per USD cent\r\n      uint256 weiPerUSDc = 1 ether/rateUSDcETH;\r\n\r\n      // Deposited value converted to USD cents\r\n      uint256 depositValueInUSDc = _weiDeposit.div(weiPerUSDc);\r\n      return depositValueInUSDc;\r\n  }\r\n  // вычисляем количество wei по курсу доллара\r\n  function calculateWeiFromUSDc(uint256 _usdcDeposit) public view returns (uint256) {\r\n\r\n      uint256 usdcPerEth = rateUSDcETH * 1 ether;\r\n\r\n      uint256 depositUSDcInEth = usdcPerEth.div(_usdcDeposit);\r\n      return depositUSDcInEth;\r\n\r\n  }\r\n  // calculates how much tokens will beneficiary get\r\n  // for given amount of wei\r\n  function calculateTokenAmount(uint256 _weiDeposit) public view returns (uint256) {\r\n      uint256 mainTokens = calculateUSDcValue(_weiDeposit) * (10 ** uint256(decimals));\r\n      mainTokens = mainTokens.div(currentTokenPrice);\r\n      return mainTokens;\r\n  }\r\n  // токены которые мы распределяем команде баунти\r\n  // до начала преICO\r\n  function sendBountyTokens(address _beneficiary, uint256 _tokenAmount) onlyOwner public returns (uint256)  {\r\n    require(block.timestamp < preIcoStartTime);\r\n    bountyTokenAmount = bountyTokenAmount.add(_tokenAmount);\r\n    // лимит на раздачу баунти-токенов\r\n    require(bountyTokenAmount <= bountyTokenMax);\r\n    token.mint(_beneficiary, _tokenAmount);\r\n    return bountyTokenMax.sub(bountyTokenAmount);\r\n  }\r\n\r\n  function refund() public returns (bool) {\r\n    require(canRefund);\r\n    address investor = msg.sender;\r\n    uint256 depositedValue = deposited[investor];\r\n    require(depositedValue > 0);\r\n    deposited[investor] = 0;\r\n    investor.transfer(depositedValue);\r\n    Refunded(investor, depositedValue);\r\n\r\n    return true;\r\n  }\r\n\r\n\r\n  function destroy() onlyOwner public {\r\n    selfdestruct(owner);\r\n  }\r\n}\r\n",
  "sourcePath": "/var/www/ico3.test/public_html/contracts/TonerCoinCrowdsale.sol",
  "compiler": {
    "name": "solc",
    "version": "0.4.19+commit.c4cbbb05.Emscripten.clang"
  },
  "schemaVersion": "2.0.0",
  "updatedAt": "2018-04-19T09:43:31.479Z"
}